{
    "contractName": "Airdropper",
    "abi": [
        {
            "inputs": [
                {
                    "internalType": "uint256",
                    "name": "_amount",
                    "type": "uint256"
                },
                {
                    "internalType": "uint8",
                    "name": "_decimals",
                    "type": "uint8"
                }
            ],
            "stateMutability": "nonpayable",
            "type": "constructor"
        },
        {
            "anonymous": false,
            "inputs": [
                {
                    "indexed": true,
                    "internalType": "address",
                    "name": "previousOwner",
                    "type": "address"
                },
                {
                    "indexed": true,
                    "internalType": "address",
                    "name": "newOwner",
                    "type": "address"
                }
            ],
            "name": "OwnershipTransferred",
            "type": "event"
        },
        {
            "inputs": [
                {
                    "internalType": "address[]",
                    "name": "_recipients",
                    "type": "address[]"
                }
            ],
            "name": "airdrop",
            "outputs": [],
            "stateMutability": "nonpayable",
            "type": "function"
        },
        {
            "inputs": [
                {
                    "internalType": "address",
                    "name": "",
                    "type": "address"
                }
            ],
            "name": "airdropAgent",
            "outputs": [
                {
                    "internalType": "bool",
                    "name": "",
                    "type": "bool"
                }
            ],
            "stateMutability": "view",
            "type": "function"
        },
        {
            "inputs": [
                {
                    "internalType": "address[]",
                    "name": "_recipients",
                    "type": "address[]"
                },
                {
                    "internalType": "uint256[]",
                    "name": "_amount",
                    "type": "uint256[]"
                }
            ],
            "name": "airdropDynamic",
            "outputs": [],
            "stateMutability": "nonpayable",
            "type": "function"
        },
        {
            "inputs": [],
            "name": "airdropTokens",
            "outputs": [
                {
                    "internalType": "uint256",
                    "name": "",
                    "type": "uint256"
                }
            ],
            "stateMutability": "view",
            "type": "function"
        },
        {
            "inputs": [],
            "name": "amountOfTokens",
            "outputs": [
                {
                    "internalType": "uint256",
                    "name": "",
                    "type": "uint256"
                }
            ],
            "stateMutability": "view",
            "type": "function"
        },
        {
            "inputs": [],
            "name": "owner",
            "outputs": [
                {
                    "internalType": "address",
                    "name": "",
                    "type": "address"
                }
            ],
            "stateMutability": "view",
            "type": "function"
        },
        {
            "inputs": [],
            "name": "remainingTokens",
            "outputs": [
                {
                    "internalType": "uint256",
                    "name": "",
                    "type": "uint256"
                }
            ],
            "stateMutability": "view",
            "type": "function"
        },
        {
            "inputs": [],
            "name": "renounceOwnership",
            "outputs": [],
            "stateMutability": "nonpayable",
            "type": "function"
        },
        {
            "inputs": [],
            "name": "reset",
            "outputs": [],
            "stateMutability": "nonpayable",
            "type": "function"
        },
        {
            "inputs": [
                {
                    "internalType": "address",
                    "name": "_agentAddress",
                    "type": "address"
                },
                {
                    "internalType": "bool",
                    "name": "state",
                    "type": "bool"
                }
            ],
            "name": "setAirdropAgent",
            "outputs": [],
            "stateMutability": "nonpayable",
            "type": "function"
        },
        {
            "inputs": [
                {
                    "internalType": "address",
                    "name": "_tokenAddress",
                    "type": "address"
                }
            ],
            "name": "setTokenAddress",
            "outputs": [],
            "stateMutability": "nonpayable",
            "type": "function"
        },
        {
            "inputs": [
                {
                    "internalType": "uint256",
                    "name": "_amount",
                    "type": "uint256"
                }
            ],
            "name": "setTokenAmount",
            "outputs": [],
            "stateMutability": "nonpayable",
            "type": "function"
        },
        {
            "inputs": [],
            "name": "token",
            "outputs": [
                {
                    "internalType": "contract ERC20",
                    "name": "",
                    "type": "address"
                }
            ],
            "stateMutability": "view",
            "type": "function"
        },
        {
            "inputs": [
                {
                    "internalType": "address",
                    "name": "",
                    "type": "address"
                }
            ],
            "name": "tokensReceived",
            "outputs": [
                {
                    "internalType": "bool",
                    "name": "",
                    "type": "bool"
                }
            ],
            "stateMutability": "view",
            "type": "function"
        },
        {
            "inputs": [],
            "name": "totalClaimed",
            "outputs": [
                {
                    "internalType": "uint256",
                    "name": "",
                    "type": "uint256"
                }
            ],
            "stateMutability": "view",
            "type": "function"
        },
        {
            "inputs": [
                {
                    "internalType": "address",
                    "name": "newOwner",
                    "type": "address"
                }
            ],
            "name": "transferOwnership",
            "outputs": [],
            "stateMutability": "nonpayable",
            "type": "function"
        }
    ],
    "bytecode": "60806040523480156200001157600080fd5b5060405162000eb738038062000eb78339810160408190526200003491620000ac565b6200003f336200005c565b6000600255620000508183620001f9565b60035550620002119050565b600080546001600160a01b038381166001600160a01b0319831681178455604051919092169283917f8be0079c531659141344cd1fd0a4f28419497f9722a3daafe3b4186f6b6457e09190a35050565b60008060408385031215620000c057600080fd5b82519150602083015160ff81168114620000d957600080fd5b809150509250929050565b634e487b7160e01b600052601160045260246000fd5b600181815b808511156200013b5781600019048211156200011f576200011f620000e4565b808516156200012d57918102915b93841c9390800290620000ff565b509250929050565b6000826200015457506001620001f3565b816200016357506000620001f3565b81600181146200017c57600281146200018757620001a7565b6001915050620001f3565b60ff8411156200019b576200019b620000e4565b50506001821b620001f3565b5060208310610133831016604e8410600b8410161715620001cc575081810a620001f3565b620001d88383620000fa565b8060001904821115620001ef57620001ef620000e4565b0290505b92915050565b60006200020a60ff84168362000143565b9392505050565b610c9680620002216000396000f3fe608060405234801561001057600080fd5b50600436106101005760003560e01c80638da5cb5b11610097578063d54ad2a111610066578063d54ad2a114610216578063d826f88f1461021f578063f2fde38b14610227578063fc0c546a1461023a57600080fd5b80638da5cb5b146101bd57806391152c5c146101e2578063bcc08919146101eb578063bf5839031461020e57600080fd5b806326a4e8d2116100d357806326a4e8d21461015c57806357fa580e1461016f578063715018a6146101a2578063729ad39e146101aa57600080fd5b806306169f63146101055780630749469f1461011a5780630cb087161461012d57806313c5211114610140575b600080fd5b610118610113366004610937565b61024d565b005b61011861012836600461096e565b6102ab565b61011861013b366004610a64565b6102da565b61014960035481565b6040519081526020015b60405180910390f35b61011861016a366004610b1f565b6104b0565b61019261017d366004610b1f565b60046020526000908152604090205460ff1681565b6040519015158152602001610153565b6101186104fc565b6101186101b8366004610b3a565b610532565b6000546001600160a01b03165b6040516001600160a01b039091168152602001610153565b61014960015481565b6101926101f9366004610b1f565b60056020526000908152604090205460ff1681565b6101496106d0565b61014960025481565b610118610742565b610118610235366004610b1f565b61080f565b6006546101ca906001600160a01b031681565b6000546001600160a01b031633146102805760405162461bcd60e51b815260040161027790610b77565b60405180910390fd5b6001600160a01b03919091166000908152600560205260409020805460ff1916911515919091179055565b6000546001600160a01b031633146102d55760405162461bcd60e51b815260040161027790610b77565b600355565b3360009081526005602052604090205460ff166102f657600080fd5b60005b82518110156104ab576004600084838151811061031857610318610bac565b6020908102919091018101516001600160a01b031682528101919091526040016000205460ff161561034957600080fd5b60065483516001600160a01b039091169063a9059cbb9085908490811061037257610372610bac565b602002602001015184848151811061038c5761038c610bac565b60200260200101516040518363ffffffff1660e01b81526004016103c59291906001600160a01b03929092168252602082015260400190565b6020604051808303816000875af11580156103e4573d6000803e3d6000fd5b505050506040513d601f19601f820116820180604052508101906104089190610bc2565b61041157600080fd5b60016004600085848151811061042957610429610bac565b60200260200101516001600160a01b03166001600160a01b0316815260200190815260200160002060006101000a81548160ff02191690831515021790555061049682828151811061047d5761047d610bac565b60200260200101516002546108aa90919063ffffffff16565b600255806104a381610bf5565b9150506102f9565b505050565b6000546001600160a01b031633146104da5760405162461bcd60e51b815260040161027790610b77565b600680546001600160a01b0319166001600160a01b0392909216919091179055565b6000546001600160a01b031633146105265760405162461bcd60e51b815260040161027790610b77565b61053060006108bd565b565b3360009081526005602052604090205460ff1661054e57600080fd5b60005b81518110156106ae576004600083838151811061057057610570610bac565b6020908102919091018101516001600160a01b031682528101919091526040016000205460ff16156105a157600080fd5b60065482516001600160a01b039091169063a9059cbb908490849081106105ca576105ca610bac565b60200260200101516003546040518363ffffffff1660e01b81526004016106069291906001600160a01b03929092168252602082015260400190565b6020604051808303816000875af1158015610625573d6000803e3d6000fd5b505050506040513d601f19601f820116820180604052508101906106499190610bc2565b61065257600080fd5b60016004600084848151811061066a5761066a610bac565b6020908102919091018101516001600160a01b03168252810191909152604001600020805460ff1916911515919091179055806106a681610bf5565b915050610551565b506106ca81516003546106c19190610c10565b600254906108aa565b60025550565b6006546040516370a0823160e01b81523060048201526000916001600160a01b0316906370a0823190602401602060405180830381865afa158015610719573d6000803e3d6000fd5b505050506040513d601f19601f8201168201806040525081019061073d9190610c2f565b905090565b6000546001600160a01b0316331461076c5760405162461bcd60e51b815260040161027790610b77565b6006546001600160a01b031663a9059cbb61078f6000546001600160a01b031690565b6107976106d0565b6040516001600160e01b031960e085901b1681526001600160a01b03909216600483015260248201526044016020604051808303816000875af11580156107e2573d6000803e3d6000fd5b505050506040513d601f19601f820116820180604052508101906108069190610bc2565b61053057600080fd5b6000546001600160a01b031633146108395760405162461bcd60e51b815260040161027790610b77565b6001600160a01b03811661089e5760405162461bcd60e51b815260206004820152602660248201527f4f776e61626c653a206e6577206f776e657220697320746865207a65726f206160448201526564647265737360d01b6064820152608401610277565b6108a7816108bd565b50565b60006108b68284610c48565b9392505050565b600080546001600160a01b038381166001600160a01b0319831681178455604051919092169283917f8be0079c531659141344cd1fd0a4f28419497f9722a3daafe3b4186f6b6457e09190a35050565b80356001600160a01b038116811461092457600080fd5b919050565b80151581146108a757600080fd5b6000806040838503121561094a57600080fd5b6109538361090d565b9150602083013561096381610929565b809150509250929050565b60006020828403121561098057600080fd5b5035919050565b634e487b7160e01b600052604160045260246000fd5b604051601f8201601f1916810167ffffffffffffffff811182821017156109c6576109c6610987565b604052919050565b600067ffffffffffffffff8211156109e8576109e8610987565b5060051b60200190565b600082601f830112610a0357600080fd5b81356020610a18610a13836109ce565b61099d565b82815260059290921b84018101918181019086841115610a3757600080fd5b8286015b84811015610a5957610a4c8161090d565b8352918301918301610a3b565b509695505050505050565b60008060408385031215610a7757600080fd5b823567ffffffffffffffff80821115610a8f57600080fd5b610a9b868387016109f2565b9350602091508185013581811115610ab257600080fd5b85019050601f81018613610ac557600080fd5b8035610ad3610a13826109ce565b81815260059190911b82018301908381019088831115610af257600080fd5b928401925b82841015610b1057833582529284019290840190610af7565b80955050505050509250929050565b600060208284031215610b3157600080fd5b6108b68261090d565b600060208284031215610b4c57600080fd5b813567ffffffffffffffff811115610b6357600080fd5b610b6f848285016109f2565b949350505050565b6020808252818101527f4f776e61626c653a2063616c6c6572206973206e6f7420746865206f776e6572604082015260600190565b634e487b7160e01b600052603260045260246000fd5b600060208284031215610bd457600080fd5b81516108b681610929565b634e487b7160e01b600052601160045260246000fd5b6000600019821415610c0957610c09610bdf565b5060010190565b6000816000190483118215151615610c2a57610c2a610bdf565b500290565b600060208284031215610c4157600080fd5b5051919050565b60008219821115610c5b57610c5b610bdf565b50019056fea2646970667358221220b8d8e4a3017633a428a84a313221f2e49b7c6c6342bcfbdff8b8a4c54414692764736f6c634300080b0033",
    "sourcePath": "z:/TEST-AIRDROP/contracts/Airdropper.sol",
    "compiler": {
        "name": "solc",
        "version": "0.8.11+commit.d7f03943"
    },
    "functionHashes": {
        "airdrop(address[])": "729ad39e",
        "airdropAgent(address)": "bcc08919",
        "airdropDynamic(address[],uint256[])": "0cb08716",
        "airdropTokens()": "91152c5c",
        "amountOfTokens()": "13c52111",
        "owner()": "8da5cb5b",
        "remainingTokens()": "bf583903",
        "renounceOwnership()": "715018a6",
        "reset()": "d826f88f",
        "setAirdropAgent(address,bool)": "06169f63",
        "setTokenAddress(address)": "26a4e8d2",
        "setTokenAmount(uint256)": "0749469f",
        "token()": "fc0c546a",
        "tokensReceived(address)": "57fa580e",
        "totalClaimed()": "d54ad2a1",
        "transferOwnership(address)": "f2fde38b"
    },
    "gasEstimates": {
        "creation": {
            "codeDepositCost": "644400",
            "executionCost": "infinite",
            "totalCost": "infinite"
        },
        "external": {
            "airdrop(address[])": "infinite",
            "airdropAgent(address)": "2598",
            "airdropDynamic(address[],uint256[])": "infinite",
            "airdropTokens()": "2329",
            "amountOfTokens()": "2374",
            "owner()": "2343",
            "remainingTokens()": "infinite",
            "renounceOwnership()": "28181",
            "reset()": "infinite",
            "setAirdropAgent(address,bool)": "26887",
            "setTokenAddress(address)": "26734",
            "setTokenAmount(uint256)": "24510",
            "token()": "2425",
            "tokensReceived(address)": "2576",
            "totalClaimed()": "2306",
            "transferOwnership(address)": "28375"
        }
    }
}